{
  "_format": "hh-sol-artifact-1",
  "contractName": "SurveyFactory",
  "sourceName": "contracts/SurveyFactory.sol",
  "abi": [
    {
      "inputs": [
        {
          "internalType": "uint256",
          "name": "_surveyCreationFees",
          "type": "uint256"
        }
      ],
      "stateMutability": "nonpayable",
      "type": "constructor"
    },
    {
      "anonymous": false,
      "inputs": [
        {
          "indexed": true,
          "internalType": "address",
          "name": "previousOwner",
          "type": "address"
        },
        {
          "indexed": true,
          "internalType": "address",
          "name": "newOwner",
          "type": "address"
        }
      ],
      "name": "OwnershipTransferred",
      "type": "event"
    },
    {
      "anonymous": false,
      "inputs": [
        {
          "indexed": true,
          "internalType": "address",
          "name": "owner",
          "type": "address"
        },
        {
          "indexed": true,
          "internalType": "uint256",
          "name": "surveyId",
          "type": "uint256"
        },
        {
          "indexed": true,
          "internalType": "address",
          "name": "surveyAddress",
          "type": "address"
        }
      ],
      "name": "SurveyCreated",
      "type": "event"
    },
    {
      "anonymous": false,
      "inputs": [
        {
          "indexed": true,
          "internalType": "uint256",
          "name": "surveyCreationFees",
          "type": "uint256"
        }
      ],
      "name": "SurveyFactoryInitialized",
      "type": "event"
    },
    {
      "inputs": [],
      "name": "createSurvey",
      "outputs": [
        {
          "internalType": "uint256",
          "name": "surveyId",
          "type": "uint256"
        },
        {
          "internalType": "address",
          "name": "newSurveyAddress",
          "type": "address"
        }
      ],
      "stateMutability": "payable",
      "type": "function"
    },
    {
      "inputs": [],
      "name": "getAllSurveys",
      "outputs": [
        {
          "internalType": "address[]",
          "name": "",
          "type": "address[]"
        }
      ],
      "stateMutability": "view",
      "type": "function"
    },
    {
      "inputs": [],
      "name": "owner",
      "outputs": [
        {
          "internalType": "address",
          "name": "",
          "type": "address"
        }
      ],
      "stateMutability": "view",
      "type": "function"
    },
    {
      "inputs": [],
      "name": "renounceOwnership",
      "outputs": [],
      "stateMutability": "nonpayable",
      "type": "function"
    },
    {
      "inputs": [],
      "name": "surveyCreationFees",
      "outputs": [
        {
          "internalType": "uint256",
          "name": "",
          "type": "uint256"
        }
      ],
      "stateMutability": "view",
      "type": "function"
    },
    {
      "inputs": [
        {
          "internalType": "address",
          "name": "",
          "type": "address"
        }
      ],
      "name": "surveyOwners",
      "outputs": [
        {
          "internalType": "address",
          "name": "owner",
          "type": "address"
        },
        {
          "internalType": "uint256",
          "name": "id",
          "type": "uint256"
        }
      ],
      "stateMutability": "view",
      "type": "function"
    },
    {
      "inputs": [
        {
          "internalType": "uint256",
          "name": "",
          "type": "uint256"
        }
      ],
      "name": "surveys",
      "outputs": [
        {
          "internalType": "address",
          "name": "",
          "type": "address"
        }
      ],
      "stateMutability": "view",
      "type": "function"
    },
    {
      "inputs": [
        {
          "internalType": "address",
          "name": "newOwner",
          "type": "address"
        }
      ],
      "name": "transferOwnership",
      "outputs": [],
      "stateMutability": "nonpayable",
      "type": "function"
    }
  ],
  "bytecode": "0x608060405234801561001057600080fd5b50604051620012f6380380620012f68339818101604052810190610034919061017a565b61005061004561009960201b60201c565b6100a160201b60201c565b6000811161005d57600080fd5b806001819055506001547ff184369f39717f266f1bf357eb0874181686f3e1fc282ae9605ba4bfd30635bb60405160405180910390a2506101c4565b600033905090565b60008060009054906101000a900473ffffffffffffffffffffffffffffffffffffffff169050816000806101000a81548173ffffffffffffffffffffffffffffffffffffffff021916908373ffffffffffffffffffffffffffffffffffffffff1602179055508173ffffffffffffffffffffffffffffffffffffffff168173ffffffffffffffffffffffffffffffffffffffff167f8be0079c531659141344cd1fd0a4f28419497f9722a3daafe3b4186f6b6457e060405160405180910390a35050565b600081519050610174816101ad565b92915050565b60006020828403121561018c57600080fd5b600061019a84828501610165565b91505092915050565b6000819050919050565b6101b6816101a3565b81146101c157600080fd5b50565b61112280620001d46000396000f3fe608060405260043610620000865760003560e01c80638da5cb5b11620000555780638da5cb5b146200015e578063a934bafe146200018e578063c65dfc9f14620001be578063f2fde38b14620001e15762000086565b806334819bdc146200008b578063715018a614620000d05780637a1bc37514620000ea57806386e68b90146200011a575b600080fd5b3480156200009857600080fd5b50620000b76004803603810190620000b191906200089c565b6200020f565b604051620000c792919062000af6565b60405180910390f35b348015620000dd57600080fd5b50620000e862000253565b005b348015620000f757600080fd5b5062000102620002e4565b60405162000111919062000b23565b60405180910390f35b3480156200012757600080fd5b50620001466004803603810190620001409190620008c8565b62000374565b60405162000155919062000ad9565b60405180910390f35b3480156200016b57600080fd5b5062000176620003b4565b60405162000185919062000ad9565b60405180910390f35b3480156200019b57600080fd5b50620001a6620003dd565b604051620001b5919062000bcf565b60405180910390f35b620001c8620003e3565b604051620001d892919062000bec565b60405180910390f35b348015620001ee57600080fd5b506200020d60048036038101906200020791906200089c565b62000690565b005b60036020528060005260406000206000915090508060000160009054906101000a900473ffffffffffffffffffffffffffffffffffffffff16908060010154905082565b6200025d62000794565b73ffffffffffffffffffffffffffffffffffffffff166200027d620003b4565b73ffffffffffffffffffffffffffffffffffffffff1614620002d6576040517f08c379a0000000000000000000000000000000000000000000000000000000008152600401620002cd9062000b8b565b60405180910390fd5b620002e260006200079c565b565b606060028054806020026020016040519081016040528092919081815260200182805480156200036a57602002820191906000526020600020905b8160009054906101000a900473ffffffffffffffffffffffffffffffffffffffff1673ffffffffffffffffffffffffffffffffffffffff16815260200190600101908083116200031f575b5050505050905090565b600281815481106200038557600080fd5b906000526020600020016000915054906101000a900473ffffffffffffffffffffffffffffffffffffffff1681565b60008060009054906101000a900473ffffffffffffffffffffffffffffffffffffffff16905090565b60015481565b600080620003f0620003b4565b73ffffffffffffffffffffffffffffffffffffffff163373ffffffffffffffffffffffffffffffffffffffff16141562000461576040517f08c379a0000000000000000000000000000000000000000000000000000000008152600401620004589062000b69565b60405180910390fd5b6001543411620004a8576040517f08c379a00000000000000000000000000000000000000000000000000000000081526004016200049f9062000bad565b60405180910390fd5b600060015434620004ba919062000c63565b33604051620004c99062000860565b620004d5919062000ad9565b6040518091039082f0905080158015620004f3573d6000803e3d6000fd5b5090508091506002829080600181540180825580915050600190039060005260206000200160009091909190916101000a81548173ffffffffffffffffffffffffffffffffffffffff021916908373ffffffffffffffffffffffffffffffffffffffff160217905550600160028054905062000570919062000c63565b925060405180604001604052803373ffffffffffffffffffffffffffffffffffffffff16815260200184815250600360008473ffffffffffffffffffffffffffffffffffffffff1673ffffffffffffffffffffffffffffffffffffffff16815260200190815260200160002060008201518160000160006101000a81548173ffffffffffffffffffffffffffffffffffffffff021916908373ffffffffffffffffffffffffffffffffffffffff160217905550602082015181600101559050508173ffffffffffffffffffffffffffffffffffffffff16833373ffffffffffffffffffffffffffffffffffffffff167f4fc6e968dd0adb70735b85cd0ae0a00f84780b7dac7193d01caa4418b3432b9260405160405180910390a4509091565b6200069a62000794565b73ffffffffffffffffffffffffffffffffffffffff16620006ba620003b4565b73ffffffffffffffffffffffffffffffffffffffff161462000713576040517f08c379a00000000000000000000000000000000000000000000000000000000081526004016200070a9062000b8b565b60405180910390fd5b600073ffffffffffffffffffffffffffffffffffffffff168173ffffffffffffffffffffffffffffffffffffffff16141562000786576040517f08c379a00000000000000000000000000000000000000000000000000000000081526004016200077d9062000b47565b60405180910390fd5b62000791816200079c565b50565b600033905090565b60008060009054906101000a900473ffffffffffffffffffffffffffffffffffffffff169050816000806101000a81548173ffffffffffffffffffffffffffffffffffffffff021916908373ffffffffffffffffffffffffffffffffffffffff1602179055508173ffffffffffffffffffffffffffffffffffffffff168173ffffffffffffffffffffffffffffffffffffffff167f8be0079c531659141344cd1fd0a4f28419497f9722a3daafe3b4186f6b6457e060405160405180910390a35050565b6103ad8062000d4083390190565b6000813590506200087f8162000d0b565b92915050565b600081359050620008968162000d25565b92915050565b600060208284031215620008af57600080fd5b6000620008bf848285016200086e565b91505092915050565b600060208284031215620008db57600080fd5b6000620008eb8482850162000885565b91505092915050565b60006200090283836200090e565b60208301905092915050565b620009198162000c9e565b82525050565b6200092a8162000c9e565b82525050565b60006200093d8262000c29565b62000949818562000c41565b9350620009568362000c19565b8060005b838110156200098d578151620009718882620008f4565b97506200097e8362000c34565b9250506001810190506200095a565b5085935050505092915050565b6000620009a960268362000c52565b91507f4f776e61626c653a206e6577206f776e657220697320746865207a65726f206160008301527f64647265737300000000000000000000000000000000000000000000000000006020830152604082019050919050565b600062000a1160198362000c52565b91507f537572766579466163746f72793a2072657374726963746564000000000000006000830152602082019050919050565b600062000a5360208362000c52565b91507f4f776e61626c653a2063616c6c6572206973206e6f7420746865206f776e65726000830152602082019050919050565b600062000a9560208362000c52565b91507f537572766579466163746f72793a204e6f7420656e6f756768206574686572736000830152602082019050919050565b62000ad38162000cd2565b82525050565b600060208201905062000af060008301846200091f565b92915050565b600060408201905062000b0d60008301856200091f565b62000b1c602083018462000ac8565b9392505050565b6000602082019050818103600083015262000b3f818462000930565b905092915050565b6000602082019050818103600083015262000b62816200099a565b9050919050565b6000602082019050818103600083015262000b848162000a02565b9050919050565b6000602082019050818103600083015262000ba68162000a44565b9050919050565b6000602082019050818103600083015262000bc88162000a86565b9050919050565b600060208201905062000be6600083018462000ac8565b92915050565b600060408201905062000c03600083018562000ac8565b62000c1260208301846200091f565b9392505050565b6000819050602082019050919050565b600081519050919050565b6000602082019050919050565b600082825260208201905092915050565b600082825260208201905092915050565b600062000c708262000cd2565b915062000c7d8362000cd2565b92508282101562000c935762000c9262000cdc565b5b828203905092915050565b600062000cab8262000cb2565b9050919050565b600073ffffffffffffffffffffffffffffffffffffffff82169050919050565b6000819050919050565b7f4e487b7100000000000000000000000000000000000000000000000000000000600052601160045260246000fd5b62000d168162000c9e565b811462000d2257600080fd5b50565b62000d308162000cd2565b811462000d3c57600080fd5b5056fe60806040526040516103ad3803806103ad83398181016040528101906100259190610168565b60003411610068576040517f08c379a000000000000000000000000000000000000000000000000000000000815260040161005f906101d1565b60405180910390fd5b33600160006101000a81548173ffffffffffffffffffffffffffffffffffffffff021916908373ffffffffffffffffffffffffffffffffffffffff160217905550806000806101000a81548173ffffffffffffffffffffffffffffffffffffffff021916908373ffffffffffffffffffffffffffffffffffffffff1602179055503460008054906101000a900473ffffffffffffffffffffffffffffffffffffffff1673ffffffffffffffffffffffffffffffffffffffff167f51cc12d146311daa1c27922fa9e4d8ab1b86db5194fa326537b50d6659ef84d160405160405180910390a35061024b565b60008151905061016281610234565b92915050565b60006020828403121561017a57600080fd5b600061018884828501610153565b91505092915050565b600061019e601f836101f1565b91507f5375727665793a20616d6f756e7420677265746572207468616e207a65726f006000830152602082019050919050565b600060208201905081810360008301526101ea81610191565b9050919050565b600082825260208201905092915050565b600061020d82610214565b9050919050565b600073ffffffffffffffffffffffffffffffffffffffff82169050919050565b61023d81610202565b811461024857600080fd5b50565b6101538061025a6000396000f3fe608060405234801561001057600080fd5b50600436106100365760003560e01c80638da5cb5b1461003b578063c45a015514610059575b600080fd5b610043610077565b60405161005091906100d0565b60405180910390f35b61006161009b565b60405161006e91906100d0565b60405180910390f35b60008054906101000a900473ffffffffffffffffffffffffffffffffffffffff1681565b600160009054906101000a900473ffffffffffffffffffffffffffffffffffffffff1681565b6100ca816100eb565b82525050565b60006020820190506100e560008301846100c1565b92915050565b60006100f6826100fd565b9050919050565b600073ffffffffffffffffffffffffffffffffffffffff8216905091905056fea264697066735822122057fb300bdb233197845bc2bc644c44cf163347a7dd1d2680f9e9e8d92ef9803c64736f6c63430008000033a26469706673582212200b648e64d800f272b4724c39d9841063286ebeacb7cfa16c2d87169bdcecd2dd64736f6c63430008000033",
  "linkReferences": {},
  "deployedLinkReferences": {}
}